{
  "address": "0x5bf15aCeeC0552b93F9b61Ed12279Fa07AB312C5",
  "abi": [
    {
      "inputs": [
        {
          "internalType": "address",
          "name": "_tokenA",
          "type": "address"
        },
        {
          "internalType": "address",
          "name": "_tokenB",
          "type": "address"
        }
      ],
      "stateMutability": "nonpayable",
      "type": "constructor"
    },
    {
      "inputs": [
        {
          "internalType": "address",
          "name": "spender",
          "type": "address"
        },
        {
          "internalType": "uint256",
          "name": "allowance",
          "type": "uint256"
        },
        {
          "internalType": "uint256",
          "name": "needed",
          "type": "uint256"
        }
      ],
      "name": "ERC20InsufficientAllowance",
      "type": "error"
    },
    {
      "inputs": [
        {
          "internalType": "address",
          "name": "sender",
          "type": "address"
        },
        {
          "internalType": "uint256",
          "name": "balance",
          "type": "uint256"
        },
        {
          "internalType": "uint256",
          "name": "needed",
          "type": "uint256"
        }
      ],
      "name": "ERC20InsufficientBalance",
      "type": "error"
    },
    {
      "inputs": [
        {
          "internalType": "address",
          "name": "approver",
          "type": "address"
        }
      ],
      "name": "ERC20InvalidApprover",
      "type": "error"
    },
    {
      "inputs": [
        {
          "internalType": "address",
          "name": "receiver",
          "type": "address"
        }
      ],
      "name": "ERC20InvalidReceiver",
      "type": "error"
    },
    {
      "inputs": [
        {
          "internalType": "address",
          "name": "sender",
          "type": "address"
        }
      ],
      "name": "ERC20InvalidSender",
      "type": "error"
    },
    {
      "inputs": [
        {
          "internalType": "address",
          "name": "spender",
          "type": "address"
        }
      ],
      "name": "ERC20InvalidSpender",
      "type": "error"
    },
    {
      "anonymous": false,
      "inputs": [
        {
          "indexed": true,
          "internalType": "address",
          "name": "owner",
          "type": "address"
        },
        {
          "indexed": true,
          "internalType": "address",
          "name": "spender",
          "type": "address"
        },
        {
          "indexed": false,
          "internalType": "uint256",
          "name": "value",
          "type": "uint256"
        }
      ],
      "name": "Approval",
      "type": "event"
    },
    {
      "anonymous": false,
      "inputs": [
        {
          "indexed": true,
          "internalType": "uint256",
          "name": "amountA",
          "type": "uint256"
        },
        {
          "indexed": true,
          "internalType": "uint256",
          "name": "amountB",
          "type": "uint256"
        },
        {
          "indexed": false,
          "internalType": "uint256",
          "name": "liquidity",
          "type": "uint256"
        }
      ],
      "name": "LiquidityAdded",
      "type": "event"
    },
    {
      "anonymous": false,
      "inputs": [
        {
          "indexed": true,
          "internalType": "address",
          "name": "from",
          "type": "address"
        },
        {
          "indexed": true,
          "internalType": "address",
          "name": "to",
          "type": "address"
        },
        {
          "indexed": false,
          "internalType": "uint256",
          "name": "value",
          "type": "uint256"
        }
      ],
      "name": "Transfer",
      "type": "event"
    },
    {
      "inputs": [
        {
          "internalType": "address",
          "name": "_tokenA",
          "type": "address"
        },
        {
          "internalType": "address",
          "name": "_tokenB",
          "type": "address"
        },
        {
          "internalType": "uint256",
          "name": "amountADesired",
          "type": "uint256"
        },
        {
          "internalType": "uint256",
          "name": "amountBDesired",
          "type": "uint256"
        },
        {
          "internalType": "uint256",
          "name": "amountAMin",
          "type": "uint256"
        },
        {
          "internalType": "uint256",
          "name": "amountBMin",
          "type": "uint256"
        },
        {
          "internalType": "address",
          "name": "to",
          "type": "address"
        },
        {
          "internalType": "uint256",
          "name": "deadline",
          "type": "uint256"
        }
      ],
      "name": "addLiquidity",
      "outputs": [
        {
          "internalType": "uint256",
          "name": "amountA",
          "type": "uint256"
        },
        {
          "internalType": "uint256",
          "name": "amountB",
          "type": "uint256"
        },
        {
          "internalType": "uint256",
          "name": "liquidity",
          "type": "uint256"
        }
      ],
      "stateMutability": "nonpayable",
      "type": "function"
    },
    {
      "inputs": [
        {
          "internalType": "address",
          "name": "owner",
          "type": "address"
        },
        {
          "internalType": "address",
          "name": "spender",
          "type": "address"
        }
      ],
      "name": "allowance",
      "outputs": [
        {
          "internalType": "uint256",
          "name": "",
          "type": "uint256"
        }
      ],
      "stateMutability": "view",
      "type": "function"
    },
    {
      "inputs": [
        {
          "internalType": "address",
          "name": "spender",
          "type": "address"
        },
        {
          "internalType": "uint256",
          "name": "value",
          "type": "uint256"
        }
      ],
      "name": "approve",
      "outputs": [
        {
          "internalType": "bool",
          "name": "",
          "type": "bool"
        }
      ],
      "stateMutability": "nonpayable",
      "type": "function"
    },
    {
      "inputs": [
        {
          "internalType": "address",
          "name": "account",
          "type": "address"
        }
      ],
      "name": "balanceOf",
      "outputs": [
        {
          "internalType": "uint256",
          "name": "",
          "type": "uint256"
        }
      ],
      "stateMutability": "view",
      "type": "function"
    },
    {
      "inputs": [],
      "name": "decimals",
      "outputs": [
        {
          "internalType": "uint8",
          "name": "",
          "type": "uint8"
        }
      ],
      "stateMutability": "view",
      "type": "function"
    },
    {
      "inputs": [
        {
          "internalType": "uint256",
          "name": "amountIn",
          "type": "uint256"
        },
        {
          "internalType": "uint256",
          "name": "reserveIn",
          "type": "uint256"
        },
        {
          "internalType": "uint256",
          "name": "reserveOut",
          "type": "uint256"
        }
      ],
      "name": "getAmountOut",
      "outputs": [
        {
          "internalType": "uint256",
          "name": "amountOut",
          "type": "uint256"
        }
      ],
      "stateMutability": "pure",
      "type": "function"
    },
    {
      "inputs": [
        {
          "internalType": "address",
          "name": "_tokenA",
          "type": "address"
        },
        {
          "internalType": "address",
          "name": "_tokenB",
          "type": "address"
        }
      ],
      "name": "getPrice",
      "outputs": [
        {
          "internalType": "uint256",
          "name": "price",
          "type": "uint256"
        }
      ],
      "stateMutability": "view",
      "type": "function"
    },
    {
      "inputs": [],
      "name": "name",
      "outputs": [
        {
          "internalType": "string",
          "name": "",
          "type": "string"
        }
      ],
      "stateMutability": "view",
      "type": "function"
    },
    {
      "inputs": [
        {
          "internalType": "address",
          "name": "_tokenA",
          "type": "address"
        },
        {
          "internalType": "address",
          "name": "_tokenB",
          "type": "address"
        },
        {
          "internalType": "uint256",
          "name": "liquidity",
          "type": "uint256"
        },
        {
          "internalType": "uint256",
          "name": "amountAMin",
          "type": "uint256"
        },
        {
          "internalType": "uint256",
          "name": "amountBMin",
          "type": "uint256"
        },
        {
          "internalType": "address",
          "name": "to",
          "type": "address"
        },
        {
          "internalType": "uint256",
          "name": "deadline",
          "type": "uint256"
        }
      ],
      "name": "removeLiquidity",
      "outputs": [
        {
          "internalType": "uint256",
          "name": "amountA",
          "type": "uint256"
        },
        {
          "internalType": "uint256",
          "name": "amountB",
          "type": "uint256"
        }
      ],
      "stateMutability": "nonpayable",
      "type": "function"
    },
    {
      "inputs": [],
      "name": "reserveA",
      "outputs": [
        {
          "internalType": "uint256",
          "name": "",
          "type": "uint256"
        }
      ],
      "stateMutability": "view",
      "type": "function"
    },
    {
      "inputs": [],
      "name": "reserveB",
      "outputs": [
        {
          "internalType": "uint256",
          "name": "",
          "type": "uint256"
        }
      ],
      "stateMutability": "view",
      "type": "function"
    },
    {
      "inputs": [
        {
          "internalType": "uint256",
          "name": "amountIn",
          "type": "uint256"
        },
        {
          "internalType": "uint256",
          "name": "amountOutMin",
          "type": "uint256"
        },
        {
          "internalType": "address[]",
          "name": "path",
          "type": "address[]"
        },
        {
          "internalType": "address",
          "name": "to",
          "type": "address"
        },
        {
          "internalType": "uint256",
          "name": "deadline",
          "type": "uint256"
        }
      ],
      "name": "swapExactTokensForTokens",
      "outputs": [],
      "stateMutability": "nonpayable",
      "type": "function"
    },
    {
      "inputs": [],
      "name": "symbol",
      "outputs": [
        {
          "internalType": "string",
          "name": "",
          "type": "string"
        }
      ],
      "stateMutability": "view",
      "type": "function"
    },
    {
      "inputs": [],
      "name": "tokenA",
      "outputs": [
        {
          "internalType": "address",
          "name": "",
          "type": "address"
        }
      ],
      "stateMutability": "view",
      "type": "function"
    },
    {
      "inputs": [],
      "name": "tokenB",
      "outputs": [
        {
          "internalType": "address",
          "name": "",
          "type": "address"
        }
      ],
      "stateMutability": "view",
      "type": "function"
    },
    {
      "inputs": [],
      "name": "totalSupply",
      "outputs": [
        {
          "internalType": "uint256",
          "name": "",
          "type": "uint256"
        }
      ],
      "stateMutability": "view",
      "type": "function"
    },
    {
      "inputs": [
        {
          "internalType": "address",
          "name": "to",
          "type": "address"
        },
        {
          "internalType": "uint256",
          "name": "value",
          "type": "uint256"
        }
      ],
      "name": "transfer",
      "outputs": [
        {
          "internalType": "bool",
          "name": "",
          "type": "bool"
        }
      ],
      "stateMutability": "nonpayable",
      "type": "function"
    },
    {
      "inputs": [
        {
          "internalType": "address",
          "name": "from",
          "type": "address"
        },
        {
          "internalType": "address",
          "name": "to",
          "type": "address"
        },
        {
          "internalType": "uint256",
          "name": "value",
          "type": "uint256"
        }
      ],
      "name": "transferFrom",
      "outputs": [
        {
          "internalType": "bool",
          "name": "",
          "type": "bool"
        }
      ],
      "stateMutability": "nonpayable",
      "type": "function"
    }
  ],
  "transactionHash": "0x71782785b5f63817453ecf1e92506fc6160bb39dc481ca50b9320a3c5f221ff4",
  "args": [
    "0x2fc5E6b5236E6b0a99C2584486642f12cf7fd9e9",
    "0x3cea16190cD4f875e0e185fAC31E2fd44727e9A0"
  ],
  "numDeployments": 2,
  "solcInputHash": "6580c5100c5cbde1ea30982753ac134b",
  "bytecode": "0x60c06040523480156200001157600080fd5b5060405162001afe38038062001afe8339810160408190526200003491620000df565b6040518060400160405280601a81526020017f53696d706c6553776170204c697175696469747920546f6b656e0000000000008152506040518060400160405280600481526020016314d4d31560e21b8152508160039081620000989190620001bc565b506004620000a78282620001bc565b5050506001600160a01b039182166080521660a05262000288565b80516001600160a01b0381168114620000da57600080fd5b919050565b60008060408385031215620000f357600080fd5b620000fe83620000c2565b91506200010e60208401620000c2565b90509250929050565b634e487b7160e01b600052604160045260246000fd5b600181811c908216806200014257607f821691505b6020821081036200016357634e487b7160e01b600052602260045260246000fd5b50919050565b601f821115620001b757600081815260208120601f850160051c81016020861015620001925750805b601f850160051c820191505b81811015620001b3578281556001016200019e565b5050505b505050565b81516001600160401b03811115620001d857620001d862000117565b620001f081620001e984546200012d565b8462000169565b602080601f8311600181146200022857600084156200020f5750858301515b600019600386901b1c1916600185901b178555620001b3565b600085815260208120601f198616915b82811015620002595788860151825594840194600190910190840162000238565b5085821015620002785787850151600019600388901b60f8161c191681555b5050505050600190811b01905550565b60805160a0516117c46200033a60003960008181610205015281816105a8015281816105e4015281816108fa0152818161093601528181610aa801528181610c2b01528181610d3b0152610e4501526000818161017e0152818161056c01528181610620015281816106ec015281816107350152818161081f015281816108be01528181610972015281816109d201528181610a6c01528181610b9701528181610cff0152610dad01526117c46000f3fe608060405234801561001057600080fd5b50600436106101165760003560e01c80635f64b55b116100a2578063ac41865a11610071578063ac41865a1461026b578063baa2abde1461027e578063dc5fa6c5146102a6578063dd62ed3e146102af578063e8e33700146102e857600080fd5b80635f64b55b1461020057806370a082311461022757806395d89b4114610250578063a9059cbb1461025857600080fd5b806318160ddd116100e957806318160ddd146101b857806319e36f3b146101c057806323b872dd146101c9578063313ce567146101dc57806338ed1739146101eb57600080fd5b8063054d50d41461011b57806306fdde0314610141578063095ea7b3146101565780630fc63d1014610179575b600080fd5b61012e61012936600461134f565b610316565b6040519081526020015b60405180910390f35b6101496103d2565b604051610138919061137b565b6101696101643660046113e0565b610464565b6040519015158152602001610138565b6101a07f000000000000000000000000000000000000000000000000000000000000000081565b6040516001600160a01b039091168152602001610138565b60025461012e565b61012e60065481565b6101696101d736600461140a565b61047e565b60405160128152602001610138565b6101fe6101f9366004611446565b6104a2565b005b6101a07f000000000000000000000000000000000000000000000000000000000000000081565b61012e6102353660046114e8565b6001600160a01b031660009081526020819052604090205490565b61014961089d565b6101696102663660046113e0565b6108ac565b61012e61027936600461150a565b6108ba565b61029161028c36600461153d565b610a47565b60408051928352602083019190915201610138565b61012e60055481565b61012e6102bd36600461150a565b6001600160a01b03918216600090815260016020908152604080832093909416825291909152205490565b6102fb6102f63660046115a7565b610cd8565b60408051938452602084019290925290820152606001610138565b600080841180156103275750600083115b80156103335750600082115b6103845760405162461bcd60e51b815260206004820152601960248201527f53696d706c65537761703a20696e76616c696420696e7075740000000000000060448201526064015b60405180910390fd5b6000610392856103e5611631565b905060006103a08483611631565b90506000826103b1876103e8611631565b6103bb9190611648565b90506103c7818361165b565b979650505050505050565b6060600380546103e19061167d565b80601f016020809104026020016040519081016040528092919081815260200182805461040d9061167d565b801561045a5780601f1061042f5761010080835404028352916020019161045a565b820191906000526020600020905b81548152906001019060200180831161043d57829003601f168201915b5050505050905090565b600033610472818585610f80565b60019150505b92915050565b60003361048c858285610f92565b610497858585611011565b506001949350505050565b804211156104c25760405162461bcd60e51b815260040161037b906116b1565b600283146105125760405162461bcd60e51b815260206004820152601860248201527f53696d706c65537761703a20696e76616c696420706174680000000000000000604482015260640161037b565b600084846000818110610527576105276116de565b905060200201602081019061053c91906114e8565b9050600085856001818110610553576105536116de565b905060200201602081019061056891906114e8565b90507f00000000000000000000000000000000000000000000000000000000000000006001600160a01b0316826001600160a01b03161480156105dc57507f00000000000000000000000000000000000000000000000000000000000000006001600160a01b0316816001600160a01b0316145b8061065457507f00000000000000000000000000000000000000000000000000000000000000006001600160a01b0316826001600160a01b031614801561065457507f00000000000000000000000000000000000000000000000000000000000000006001600160a01b0316816001600160a01b0316145b6106705760405162461bcd60e51b815260040161037b906116f4565b6040516323b872dd60e01b8152336004820152306024820152604481018990526001600160a01b038316906323b872dd906064016020604051808303816000875af11580156106c3573d6000803e3d6000fd5b505050506040513d601f19601f820116820180604052508101906106e7919061172b565b5060007f00000000000000000000000000000000000000000000000000000000000000006001600160a01b0316836001600160a01b03161461072b5760065461072f565b6005545b905060007f00000000000000000000000000000000000000000000000000000000000000006001600160a01b0316836001600160a01b03161461077457600654610778565b6005545b905060006107878b8484610316565b9050898110156107a95760405162461bcd60e51b815260040161037b9061174d565b60405163a9059cbb60e01b81526001600160a01b0388811660048301526024820183905285169063a9059cbb906044016020604051808303816000875af11580156107f8573d6000803e3d6000fd5b505050506040513d601f19601f8201168201806040525081019061081c919061172b565b507f00000000000000000000000000000000000000000000000000000000000000006001600160a01b0316856001600160a01b031603610875576108608b84611648565b60055561086d818361177b565b600655610890565b61087f8b84611648565b60065561088c818361177b565b6005555b5050505050505050505050565b6060600480546103e19061167d565b600033610472818585611011565b60007f00000000000000000000000000000000000000000000000000000000000000006001600160a01b0316836001600160a01b031614801561092e57507f00000000000000000000000000000000000000000000000000000000000000006001600160a01b0316826001600160a01b0316145b806109a657507f00000000000000000000000000000000000000000000000000000000000000006001600160a01b0316836001600160a01b03161480156109a657507f00000000000000000000000000000000000000000000000000000000000000006001600160a01b0316826001600160a01b0316145b6109c25760405162461bcd60e51b815260040161037b906116f4565b6005546006546001600160a01b037f0000000000000000000000000000000000000000000000000000000000000000811690861603610a1f5781610a0e82670de0b6b3a7640000611631565b610a18919061165b565b9250610a3f565b80610a3283670de0b6b3a7640000611631565b610a3c919061165b565b92505b505092915050565b60008082421115610a6a5760405162461bcd60e51b815260040161037b906116b1565b7f00000000000000000000000000000000000000000000000000000000000000006001600160a01b0316896001600160a01b0316148015610adc57507f00000000000000000000000000000000000000000000000000000000000000006001600160a01b0316886001600160a01b0316145b610af85760405162461bcd60e51b815260040161037b906116f4565b6000610b0360025490565b90508060055489610b149190611631565b610b1e919061165b565b92508060065489610b2f9190611631565b610b39919061165b565b9150868310158015610b4b5750858210155b610b675760405162461bcd60e51b815260040161037b9061174d565b610b713389611070565b60405163a9059cbb60e01b81526001600160a01b038681166004830152602482018590527f0000000000000000000000000000000000000000000000000000000000000000169063a9059cbb906044016020604051808303816000875af1158015610be0573d6000803e3d6000fd5b505050506040513d601f19601f82011682018060405250810190610c04919061172b565b5060405163a9059cbb60e01b81526001600160a01b038681166004830152602482018490527f0000000000000000000000000000000000000000000000000000000000000000169063a9059cbb906044016020604051808303816000875af1158015610c74573d6000803e3d6000fd5b505050506040513d601f19601f82011682018060405250810190610c98919061172b565b508260056000828254610cab919061177b565b925050819055508160066000828254610cc4919061177b565b925050819055505097509795505050505050565b600080600083421115610cfd5760405162461bcd60e51b815260040161037b906116b1565b7f00000000000000000000000000000000000000000000000000000000000000006001600160a01b03168b6001600160a01b0316148015610d6f57507f00000000000000000000000000000000000000000000000000000000000000006001600160a01b03168a6001600160a01b0316145b610d8b5760405162461bcd60e51b815260040161037b906116f4565b6040516323b872dd60e01b8152336004820152306024820152604481018a90527f00000000000000000000000000000000000000000000000000000000000000006001600160a01b0316906323b872dd906064016020604051808303816000875af1158015610dfe573d6000803e3d6000fd5b505050506040513d601f19601f82011682018060405250810190610e22919061172b565b506040516323b872dd60e01b8152336004820152306024820152604481018990527f00000000000000000000000000000000000000000000000000000000000000006001600160a01b0316906323b872dd906064016020604051808303816000875af1158015610e96573d6000803e3d6000fd5b505050506040513d601f19601f82011682018060405250810190610eba919061172b565b50889250879150868310158015610ed15750858210155b610eed5760405162461bcd60e51b815260040161037b9061174d565b610eff610efa8385611631565b6110aa565b9050610f0b858261111a565b8260056000828254610f1d9190611648565b925050819055508160066000828254610f369190611648565b9091555050604051818152829084907fd7f28048575eead8851d024ead087913957dfb4fd1a02b4d1573f5352a5a2be39060200160405180910390a3985098509895505050505050565b610f8d8383836001611150565b505050565b6001600160a01b0383811660009081526001602090815260408083209386168352929052205460001981101561100b5781811015610ffc57604051637dc7a0d960e11b81526001600160a01b0384166004820152602481018290526044810183905260640161037b565b61100b84848484036000611150565b50505050565b6001600160a01b03831661103b57604051634b637e8f60e11b81526000600482015260240161037b565b6001600160a01b0382166110655760405163ec442f0560e01b81526000600482015260240161037b565b610f8d838383611225565b6001600160a01b03821661109a57604051634b637e8f60e11b81526000600482015260240161037b565b6110a682600083611225565b5050565b6000600382111561110b57508060006110c460028361165b565b6110cf906001611648565b90505b81811015611105579050806002816110ea818661165b565b6110f49190611648565b6110fe919061165b565b90506110d2565b50919050565b8115611115575060015b919050565b6001600160a01b0382166111445760405163ec442f0560e01b81526000600482015260240161037b565b6110a660008383611225565b6001600160a01b03841661117a5760405163e602df0560e01b81526000600482015260240161037b565b6001600160a01b0383166111a457604051634a1406b160e11b81526000600482015260240161037b565b6001600160a01b038085166000908152600160209081526040808320938716835292905220829055801561100b57826001600160a01b0316846001600160a01b03167f8c5be1e5ebec7d5bd14f71427d1e84f3dd0314c0f7b2291e5b200ac8c7c3b9258460405161121791815260200190565b60405180910390a350505050565b6001600160a01b0383166112505780600260008282546112459190611648565b909155506112c29050565b6001600160a01b038316600090815260208190526040902054818110156112a35760405163391434e360e21b81526001600160a01b0385166004820152602481018290526044810183905260640161037b565b6001600160a01b03841660009081526020819052604090209082900390555b6001600160a01b0382166112de576002805482900390556112fd565b6001600160a01b03821660009081526020819052604090208054820190555b816001600160a01b0316836001600160a01b03167fddf252ad1be2c89b69c2b068fc378daa952ba7f163c4a11628f55a4df523b3ef8360405161134291815260200190565b60405180910390a3505050565b60008060006060848603121561136457600080fd5b505081359360208301359350604090920135919050565b600060208083528351808285015260005b818110156113a85785810183015185820160400152820161138c565b506000604082860101526040601f19601f8301168501019250505092915050565b80356001600160a01b038116811461111557600080fd5b600080604083850312156113f357600080fd5b6113fc836113c9565b946020939093013593505050565b60008060006060848603121561141f57600080fd5b611428846113c9565b9250611436602085016113c9565b9150604084013590509250925092565b60008060008060008060a0878903121561145f57600080fd5b8635955060208701359450604087013567ffffffffffffffff8082111561148557600080fd5b818901915089601f83011261149957600080fd5b8135818111156114a857600080fd5b8a60208260051b85010111156114bd57600080fd5b6020830196508095505050506114d5606088016113c9565b9150608087013590509295509295509295565b6000602082840312156114fa57600080fd5b611503826113c9565b9392505050565b6000806040838503121561151d57600080fd5b611526836113c9565b9150611534602084016113c9565b90509250929050565b600080600080600080600060e0888a03121561155857600080fd5b611561886113c9565b965061156f602089016113c9565b955060408801359450606088013593506080880135925061159260a089016113c9565b915060c0880135905092959891949750929550565b600080600080600080600080610100898b0312156115c457600080fd5b6115cd896113c9565b97506115db60208a016113c9565b965060408901359550606089013594506080890135935060a0890135925061160560c08a016113c9565b915060e089013590509295985092959890939650565b634e487b7160e01b600052601160045260246000fd5b80820281158282048414176104785761047861161b565b808201808211156104785761047861161b565b60008261167857634e487b7160e01b600052601260045260246000fd5b500490565b600181811c9082168061169157607f821691505b60208210810361110557634e487b7160e01b600052602260045260246000fd5b60208082526013908201527214da5b5c1b1954ddd85c0e88195e1c1a5c9959606a1b604082015260600190565b634e487b7160e01b600052603260045260246000fd5b60208082526018908201527f53696d706c65537761703a20696e76616c696420706169720000000000000000604082015260600190565b60006020828403121561173d57600080fd5b8151801515811461150357600080fd5b60208082526014908201527353696d706c65537761703a20736c69707061676560601b604082015260600190565b818103818111156104785761047861161b56fea2646970667358221220d2274a17ae0efd5ed66fbdaaefec923b0fd021a254c801a21626953256422b3d64736f6c63430008140033",
  "devdoc": {
    "author": "Walter Liendo",
    "details": "Implements a simplified Uniswap V2-like mechanism without fees",
    "errors": {
      "ERC20InsufficientAllowance(address,uint256,uint256)": [
        {
          "details": "Indicates a failure with the `spender`s `allowance`. Used in transfers.",
          "params": {
            "allowance": "Amount of tokens a `spender` is allowed to operate with.",
            "needed": "Minimum amount required to perform a transfer.",
            "spender": "Address that may be allowed to operate on tokens without being their owner."
          }
        }
      ],
      "ERC20InsufficientBalance(address,uint256,uint256)": [
        {
          "details": "Indicates an error related to the current `balance` of a `sender`. Used in transfers.",
          "params": {
            "balance": "Current balance for the interacting account.",
            "needed": "Minimum amount required to perform a transfer.",
            "sender": "Address whose tokens are being transferred."
          }
        }
      ],
      "ERC20InvalidApprover(address)": [
        {
          "details": "Indicates a failure with the `approver` of a token to be approved. Used in approvals.",
          "params": {
            "approver": "Address initiating an approval operation."
          }
        }
      ],
      "ERC20InvalidReceiver(address)": [
        {
          "details": "Indicates a failure with the token `receiver`. Used in transfers.",
          "params": {
            "receiver": "Address to which tokens are being transferred."
          }
        }
      ],
      "ERC20InvalidSender(address)": [
        {
          "details": "Indicates a failure with the token `sender`. Used in transfers.",
          "params": {
            "sender": "Address whose tokens are being transferred."
          }
        }
      ],
      "ERC20InvalidSpender(address)": [
        {
          "details": "Indicates a failure with the `spender` to be approved. Used in approvals.",
          "params": {
            "spender": "Address that may be allowed to operate on tokens without being their owner."
          }
        }
      ]
    },
    "events": {
      "Approval(address,address,uint256)": {
        "details": "Emitted when the allowance of a `spender` for an `owner` is set by a call to {approve}. `value` is the new allowance."
      },
      "LiquidityAdded(uint256,uint256,uint256)": {
        "params": {
          "amountA": "Amount of TokenA added",
          "amountB": "Amount of TokenB added",
          "liquidity": "Amount of liquidity tokens minted"
        }
      },
      "Transfer(address,address,uint256)": {
        "details": "Emitted when `value` tokens are moved from one account (`from`) to another (`to`). Note that `value` may be zero."
      }
    },
    "kind": "dev",
    "methods": {
      "addLiquidity(address,address,uint256,uint256,uint256,uint256,address,uint256)": {
        "params": {
          "_tokenA": "Must equal `tokenA`",
          "_tokenB": "Must equal `tokenB`",
          "amountADesired": "Amount of TokenA to deposit",
          "amountAMin": "Minimum amount of TokenA (slippage protection)",
          "amountBDesired": "Amount of TokenB to deposit",
          "amountBMin": "Minimum amount of TokenB (slippage protection)",
          "deadline": "Unix time after which transaction reverts",
          "to": "Recipient of liquidity tokens"
        },
        "returns": {
          "amountA": "      Actual amount of TokenA deposited",
          "amountB": "      Actual amount of TokenB deposited",
          "liquidity": "    Amount of liquidity tokens minted"
        }
      },
      "allowance(address,address)": {
        "details": "See {IERC20-allowance}."
      },
      "approve(address,uint256)": {
        "details": "See {IERC20-approve}. NOTE: If `value` is the maximum `uint256`, the allowance is not updated on `transferFrom`. This is semantically equivalent to an infinite approval. Requirements: - `spender` cannot be the zero address."
      },
      "balanceOf(address)": {
        "details": "See {IERC20-balanceOf}."
      },
      "constructor": {
        "params": {
          "_tokenA": "Address of TokenA",
          "_tokenB": "Address of TokenB"
        }
      },
      "decimals()": {
        "details": "Returns the number of decimals used to get its user representation. For example, if `decimals` equals `2`, a balance of `505` tokens should be displayed to a user as `5.05` (`505 / 10 ** 2`). Tokens usually opt for a value of 18, imitating the relationship between Ether and Wei. This is the default value returned by this function, unless it's overridden. NOTE: This information is only used for _display_ purposes: it in no way affects any of the arithmetic of the contract, including {IERC20-balanceOf} and {IERC20-transfer}."
      },
      "getAmountOut(uint256,uint256,uint256)": {
        "params": {
          "amountIn": "Input token amount",
          "reserveIn": "Reserve of input token",
          "reserveOut": "Reserve of output token"
        },
        "returns": {
          "amountOut": "Output token amount accounting for 0.3% fee"
        }
      },
      "getPrice(address,address)": {
        "params": {
          "_tokenA": "Base token address",
          "_tokenB": "Quote token address"
        },
        "returns": {
          "price": "  Price scaled by 1e18"
        }
      },
      "name()": {
        "details": "Returns the name of the token."
      },
      "removeLiquidity(address,address,uint256,uint256,uint256,address,uint256)": {
        "params": {
          "_tokenA": "Must equal `tokenA`",
          "_tokenB": "Must equal `tokenB`",
          "amountAMin": "Minimum amount of TokenA (slippage protection)",
          "amountBMin": "Minimum amount of TokenB (slippage protection)",
          "deadline": "Unix time after which transaction reverts",
          "liquidity": "Amount of liquidity tokens to burn",
          "to": "Recipient of withdrawn tokens"
        },
        "returns": {
          "amountA": "  Amount of TokenA withdrawn",
          "amountB": "  Amount of TokenB withdrawn"
        }
      },
      "swapExactTokensForTokens(uint256,uint256,address[],address,uint256)": {
        "params": {
          "amountIn": "Amount of input tokens to swap",
          "amountOutMin": "Minimum acceptable output tokens (slippage protection)",
          "deadline": "Unix time after which transaction reverts",
          "path": "Array [inputToken, outputToken]",
          "to": "Recipient of output tokens"
        }
      },
      "symbol()": {
        "details": "Returns the symbol of the token, usually a shorter version of the name."
      },
      "totalSupply()": {
        "details": "See {IERC20-totalSupply}."
      },
      "transfer(address,uint256)": {
        "details": "See {IERC20-transfer}. Requirements: - `to` cannot be the zero address. - the caller must have a balance of at least `value`."
      },
      "transferFrom(address,address,uint256)": {
        "details": "See {IERC20-transferFrom}. Skips emitting an {Approval} event indicating an allowance update. This is not required by the ERC. See {xref-ERC20-_approve-address-address-uint256-bool-}[_approve]. NOTE: Does not update the allowance if the current allowance is the maximum `uint256`. Requirements: - `from` and `to` cannot be the zero address. - `from` must have a balance of at least `value`. - the caller must have allowance for ``from``'s tokens of at least `value`."
      }
    },
    "title": "SimpleSwap DEX",
    "version": 1
  },
  "userdoc": {
    "events": {
      "LiquidityAdded(uint256,uint256,uint256)": {
        "notice": "Emitted when liquidity is added to the pool"
      }
    },
    "kind": "user",
    "methods": {
      "addLiquidity(address,address,uint256,uint256,uint256,uint256,address,uint256)": {
        "notice": "Adds liquidity to the TokenA-TokenB pool"
      },
      "constructor": {
        "notice": "Initializes the SimpleSwap contract"
      },
      "getAmountOut(uint256,uint256,uint256)": {
        "notice": "Calculates output amount for a given input and reserves"
      },
      "getPrice(address,address)": {
        "notice": "Returns the price of one token in terms of the other"
      },
      "removeLiquidity(address,address,uint256,uint256,uint256,address,uint256)": {
        "notice": "Removes liquidity from the TokenA-TokenB pool"
      },
      "reserveA()": {
        "notice": "Current reserve of TokenA held by the contract"
      },
      "reserveB()": {
        "notice": "Current reserve of TokenB held by the contract"
      },
      "swapExactTokensForTokens(uint256,uint256,address[],address,uint256)": {
        "notice": "Executes an exact-input token swap"
      },
      "tokenA()": {
        "notice": "Address of TokenA in the pair"
      },
      "tokenB()": {
        "notice": "Address of TokenB in the pair"
      }
    },
    "notice": "Decentralized exchange for swapping TokenA and TokenB, issuing liquidity tokens",
    "version": 1
  },
  "storageLayout": {
    "storage": [
      {
        "astId": 307,
        "contract": "contracts/SimpleSwap.sol:SimpleSwap",
        "label": "_balances",
        "offset": 0,
        "slot": "0",
        "type": "t_mapping(t_address,t_uint256)"
      },
      {
        "astId": 313,
        "contract": "contracts/SimpleSwap.sol:SimpleSwap",
        "label": "_allowances",
        "offset": 0,
        "slot": "1",
        "type": "t_mapping(t_address,t_mapping(t_address,t_uint256))"
      },
      {
        "astId": 315,
        "contract": "contracts/SimpleSwap.sol:SimpleSwap",
        "label": "_totalSupply",
        "offset": 0,
        "slot": "2",
        "type": "t_uint256"
      },
      {
        "astId": 317,
        "contract": "contracts/SimpleSwap.sol:SimpleSwap",
        "label": "_name",
        "offset": 0,
        "slot": "3",
        "type": "t_string_storage"
      },
      {
        "astId": 319,
        "contract": "contracts/SimpleSwap.sol:SimpleSwap",
        "label": "_symbol",
        "offset": 0,
        "slot": "4",
        "type": "t_string_storage"
      },
      {
        "astId": 949,
        "contract": "contracts/SimpleSwap.sol:SimpleSwap",
        "label": "reserveA",
        "offset": 0,
        "slot": "5",
        "type": "t_uint256"
      },
      {
        "astId": 952,
        "contract": "contracts/SimpleSwap.sol:SimpleSwap",
        "label": "reserveB",
        "offset": 0,
        "slot": "6",
        "type": "t_uint256"
      }
    ],
    "types": {
      "t_address": {
        "encoding": "inplace",
        "label": "address",
        "numberOfBytes": "20"
      },
      "t_mapping(t_address,t_mapping(t_address,t_uint256))": {
        "encoding": "mapping",
        "key": "t_address",
        "label": "mapping(address => mapping(address => uint256))",
        "numberOfBytes": "32",
        "value": "t_mapping(t_address,t_uint256)"
      },
      "t_mapping(t_address,t_uint256)": {
        "encoding": "mapping",
        "key": "t_address",
        "label": "mapping(address => uint256)",
        "numberOfBytes": "32",
        "value": "t_uint256"
      },
      "t_string_storage": {
        "encoding": "bytes",
        "label": "string",
        "numberOfBytes": "32"
      },
      "t_uint256": {
        "encoding": "inplace",
        "label": "uint256",
        "numberOfBytes": "32"
      }
    }
  }
}