{
  "chainId": 11155111,
  "address": "0xBF24790A19EB7b52944bC0a514bc9848a4C56387",
  "abi": [
    {
      "inputs": [
        {
          "internalType": "address",
          "name": "_tokenA",
          "type": "address"
        },
        {
          "internalType": "address",
          "name": "_tokenB",
          "type": "address"
        }
      ],
      "stateMutability": "nonpayable",
      "type": "constructor"
    },
    {
      "inputs": [
        {
          "internalType": "address",
          "name": "spender",
          "type": "address"
        },
        {
          "internalType": "uint256",
          "name": "allowance",
          "type": "uint256"
        },
        {
          "internalType": "uint256",
          "name": "needed",
          "type": "uint256"
        }
      ],
      "name": "ERC20InsufficientAllowance",
      "type": "error"
    },
    {
      "inputs": [
        {
          "internalType": "address",
          "name": "sender",
          "type": "address"
        },
        {
          "internalType": "uint256",
          "name": "balance",
          "type": "uint256"
        },
        {
          "internalType": "uint256",
          "name": "needed",
          "type": "uint256"
        }
      ],
      "name": "ERC20InsufficientBalance",
      "type": "error"
    },
    {
      "inputs": [
        {
          "internalType": "address",
          "name": "approver",
          "type": "address"
        }
      ],
      "name": "ERC20InvalidApprover",
      "type": "error"
    },
    {
      "inputs": [
        {
          "internalType": "address",
          "name": "receiver",
          "type": "address"
        }
      ],
      "name": "ERC20InvalidReceiver",
      "type": "error"
    },
    {
      "inputs": [
        {
          "internalType": "address",
          "name": "sender",
          "type": "address"
        }
      ],
      "name": "ERC20InvalidSender",
      "type": "error"
    },
    {
      "inputs": [
        {
          "internalType": "address",
          "name": "spender",
          "type": "address"
        }
      ],
      "name": "ERC20InvalidSpender",
      "type": "error"
    },
    {
      "anonymous": false,
      "inputs": [
        {
          "indexed": true,
          "internalType": "address",
          "name": "owner",
          "type": "address"
        },
        {
          "indexed": true,
          "internalType": "address",
          "name": "spender",
          "type": "address"
        },
        {
          "indexed": false,
          "internalType": "uint256",
          "name": "value",
          "type": "uint256"
        }
      ],
      "name": "Approval",
      "type": "event"
    },
    {
      "anonymous": false,
      "inputs": [
        {
          "indexed": false,
          "internalType": "uint256",
          "name": "amountA",
          "type": "uint256"
        },
        {
          "indexed": false,
          "internalType": "uint256",
          "name": "amountB",
          "type": "uint256"
        },
        {
          "indexed": false,
          "internalType": "uint256",
          "name": "liquidity",
          "type": "uint256"
        }
      ],
      "name": "LiquidityAdded",
      "type": "event"
    },
    {
      "anonymous": false,
      "inputs": [
        {
          "indexed": true,
          "internalType": "address",
          "name": "from",
          "type": "address"
        },
        {
          "indexed": true,
          "internalType": "address",
          "name": "to",
          "type": "address"
        },
        {
          "indexed": false,
          "internalType": "uint256",
          "name": "value",
          "type": "uint256"
        }
      ],
      "name": "Transfer",
      "type": "event"
    },
    {
      "inputs": [
        {
          "internalType": "address",
          "name": "_tokenA",
          "type": "address"
        },
        {
          "internalType": "address",
          "name": "_tokenB",
          "type": "address"
        },
        {
          "internalType": "uint256",
          "name": "amountADesired",
          "type": "uint256"
        },
        {
          "internalType": "uint256",
          "name": "amountBDesired",
          "type": "uint256"
        },
        {
          "internalType": "uint256",
          "name": "amountAMin",
          "type": "uint256"
        },
        {
          "internalType": "uint256",
          "name": "amountBMin",
          "type": "uint256"
        },
        {
          "internalType": "address",
          "name": "to",
          "type": "address"
        },
        {
          "internalType": "uint256",
          "name": "deadline",
          "type": "uint256"
        }
      ],
      "name": "addLiquidity",
      "outputs": [
        {
          "internalType": "uint256",
          "name": "amountA",
          "type": "uint256"
        },
        {
          "internalType": "uint256",
          "name": "amountB",
          "type": "uint256"
        },
        {
          "internalType": "uint256",
          "name": "liquidity",
          "type": "uint256"
        }
      ],
      "stateMutability": "nonpayable",
      "type": "function"
    },
    {
      "inputs": [
        {
          "internalType": "address",
          "name": "owner",
          "type": "address"
        },
        {
          "internalType": "address",
          "name": "spender",
          "type": "address"
        }
      ],
      "name": "allowance",
      "outputs": [
        {
          "internalType": "uint256",
          "name": "",
          "type": "uint256"
        }
      ],
      "stateMutability": "view",
      "type": "function"
    },
    {
      "inputs": [
        {
          "internalType": "address",
          "name": "spender",
          "type": "address"
        },
        {
          "internalType": "uint256",
          "name": "value",
          "type": "uint256"
        }
      ],
      "name": "approve",
      "outputs": [
        {
          "internalType": "bool",
          "name": "",
          "type": "bool"
        }
      ],
      "stateMutability": "nonpayable",
      "type": "function"
    },
    {
      "inputs": [
        {
          "internalType": "address",
          "name": "account",
          "type": "address"
        }
      ],
      "name": "balanceOf",
      "outputs": [
        {
          "internalType": "uint256",
          "name": "",
          "type": "uint256"
        }
      ],
      "stateMutability": "view",
      "type": "function"
    },
    {
      "inputs": [],
      "name": "decimals",
      "outputs": [
        {
          "internalType": "uint8",
          "name": "",
          "type": "uint8"
        }
      ],
      "stateMutability": "view",
      "type": "function"
    },
    {
      "inputs": [
        {
          "internalType": "uint256",
          "name": "amountIn",
          "type": "uint256"
        },
        {
          "internalType": "uint256",
          "name": "reserveIn",
          "type": "uint256"
        },
        {
          "internalType": "uint256",
          "name": "reserveOut",
          "type": "uint256"
        }
      ],
      "name": "getAmountOut",
      "outputs": [
        {
          "internalType": "uint256",
          "name": "amountOut",
          "type": "uint256"
        }
      ],
      "stateMutability": "pure",
      "type": "function"
    },
    {
      "inputs": [
        {
          "internalType": "address",
          "name": "_tokenA",
          "type": "address"
        },
        {
          "internalType": "address",
          "name": "_tokenB",
          "type": "address"
        }
      ],
      "name": "getPrice",
      "outputs": [
        {
          "internalType": "uint256",
          "name": "price",
          "type": "uint256"
        }
      ],
      "stateMutability": "view",
      "type": "function"
    },
    {
      "inputs": [],
      "name": "name",
      "outputs": [
        {
          "internalType": "string",
          "name": "",
          "type": "string"
        }
      ],
      "stateMutability": "view",
      "type": "function"
    },
    {
      "inputs": [
        {
          "internalType": "address",
          "name": "_tokenA",
          "type": "address"
        },
        {
          "internalType": "address",
          "name": "_tokenB",
          "type": "address"
        },
        {
          "internalType": "uint256",
          "name": "liquidity",
          "type": "uint256"
        },
        {
          "internalType": "uint256",
          "name": "amountAMin",
          "type": "uint256"
        },
        {
          "internalType": "uint256",
          "name": "amountBMin",
          "type": "uint256"
        },
        {
          "internalType": "address",
          "name": "to",
          "type": "address"
        },
        {
          "internalType": "uint256",
          "name": "deadline",
          "type": "uint256"
        }
      ],
      "name": "removeLiquidity",
      "outputs": [
        {
          "internalType": "uint256",
          "name": "amountA",
          "type": "uint256"
        },
        {
          "internalType": "uint256",
          "name": "amountB",
          "type": "uint256"
        }
      ],
      "stateMutability": "nonpayable",
      "type": "function"
    },
    {
      "inputs": [],
      "name": "reserveA",
      "outputs": [
        {
          "internalType": "uint256",
          "name": "",
          "type": "uint256"
        }
      ],
      "stateMutability": "view",
      "type": "function"
    },
    {
      "inputs": [],
      "name": "reserveB",
      "outputs": [
        {
          "internalType": "uint256",
          "name": "",
          "type": "uint256"
        }
      ],
      "stateMutability": "view",
      "type": "function"
    },
    {
      "inputs": [
        {
          "internalType": "uint256",
          "name": "amountIn",
          "type": "uint256"
        },
        {
          "internalType": "uint256",
          "name": "amountOutMin",
          "type": "uint256"
        },
        {
          "internalType": "address[]",
          "name": "path",
          "type": "address[]"
        },
        {
          "internalType": "address",
          "name": "to",
          "type": "address"
        },
        {
          "internalType": "uint256",
          "name": "deadline",
          "type": "uint256"
        }
      ],
      "name": "swapExactTokensForTokens",
      "outputs": [],
      "stateMutability": "nonpayable",
      "type": "function"
    },
    {
      "inputs": [],
      "name": "symbol",
      "outputs": [
        {
          "internalType": "string",
          "name": "",
          "type": "string"
        }
      ],
      "stateMutability": "view",
      "type": "function"
    },
    {
      "inputs": [],
      "name": "tokenA",
      "outputs": [
        {
          "internalType": "address",
          "name": "",
          "type": "address"
        }
      ],
      "stateMutability": "view",
      "type": "function"
    },
    {
      "inputs": [],
      "name": "tokenB",
      "outputs": [
        {
          "internalType": "address",
          "name": "",
          "type": "address"
        }
      ],
      "stateMutability": "view",
      "type": "function"
    },
    {
      "inputs": [],
      "name": "totalSupply",
      "outputs": [
        {
          "internalType": "uint256",
          "name": "",
          "type": "uint256"
        }
      ],
      "stateMutability": "view",
      "type": "function"
    },
    {
      "inputs": [
        {
          "internalType": "address",
          "name": "to",
          "type": "address"
        },
        {
          "internalType": "uint256",
          "name": "value",
          "type": "uint256"
        }
      ],
      "name": "transfer",
      "outputs": [
        {
          "internalType": "bool",
          "name": "",
          "type": "bool"
        }
      ],
      "stateMutability": "nonpayable",
      "type": "function"
    },
    {
      "inputs": [
        {
          "internalType": "address",
          "name": "from",
          "type": "address"
        },
        {
          "internalType": "address",
          "name": "to",
          "type": "address"
        },
        {
          "internalType": "uint256",
          "name": "value",
          "type": "uint256"
        }
      ],
      "name": "transferFrom",
      "outputs": [
        {
          "internalType": "bool",
          "name": "",
          "type": "bool"
        }
      ],
      "stateMutability": "nonpayable",
      "type": "function"
    }
  ],
  "transactionHash": "0x8f784a5e11d0d7a08406fb2a0cc391080dccfadb3861d8060044d4b5a1f1ad3c",
  "args": [
    "0x2c5dE7ce59F2540Fc6993966b12A4F92D3f8Bd28",
    "0x9167460d361769a62A447847EEecE91Df135d8f6"
  ],
  "numDeployments": 1,
  "solcInputHash": "9fa54e11d09ed293bba28bc5308b7f16",
  "bytecode": "0x60806040523480156200001157600080fd5b506040516200179d3803806200179d8339810160408190526200003491620000fd565b6040518060400160405280601881526020017f53696d706c65537761704c6971756964697479546f6b656e00000000000000008152506040518060400160405280600481526020016314d4d31560e21b8152508160039081620000989190620001da565b506004620000a78282620001da565b5050600580546001600160a01b039485166001600160a01b031991821617909155600680549390941692169190911790915550620002a6565b80516001600160a01b0381168114620000f857600080fd5b919050565b600080604083850312156200011157600080fd5b6200011c83620000e0565b91506200012c60208401620000e0565b90509250929050565b634e487b7160e01b600052604160045260246000fd5b600181811c908216806200016057607f821691505b6020821081036200018157634e487b7160e01b600052602260045260246000fd5b50919050565b601f821115620001d557600081815260208120601f850160051c81016020861015620001b05750805b601f850160051c820191505b81811015620001d157828155600101620001bc565b5050505b505050565b81516001600160401b03811115620001f657620001f662000135565b6200020e816200020784546200014b565b8462000187565b602080601f8311600181146200024657600084156200022d5750858301515b600019600386901b1c1916600185901b178555620001d1565b600085815260208120601f198616915b82811015620002775788860151825594840194600190910190840162000256565b5085821015620002965787850151600019600388901b60f8161c191681555b5050505050600190811b01905550565b6114e780620002b66000396000f3fe608060405234801561001057600080fd5b50600436106101165760003560e01c80635f64b55b116100a2578063ac41865a11610071578063ac41865a14610243578063baa2abde14610256578063dc5fa6c51461027e578063dd62ed3e14610287578063e8e33700146102c057600080fd5b80635f64b55b146101ec57806370a08231146101ff57806395d89b4114610228578063a9059cbb1461023057600080fd5b806318160ddd116100e957806318160ddd146101a457806319e36f3b146101ac57806323b872dd146101b5578063313ce567146101c857806338ed1739146101d757600080fd5b8063054d50d41461011b57806306fdde0314610141578063095ea7b3146101565780630fc63d1014610179575b600080fd5b61012e610129366004611099565b6102ee565b6040519081526020015b60405180910390f35b61014961039a565b60405161013891906110c5565b61016961016436600461112a565b61042c565b6040519015158152602001610138565b60055461018c906001600160a01b031681565b6040516001600160a01b039091168152602001610138565b60025461012e565b61012e60085481565b6101696101c3366004611154565b610446565b60405160128152602001610138565b6101ea6101e5366004611190565b61046a565b005b60065461018c906001600160a01b031681565b61012e61020d366004611232565b6001600160a01b031660009081526020819052604090205490565b61014961078a565b61016961023e36600461112a565b610799565b61012e61025136600461124d565b6107a7565b610269610264366004611280565b610888565b60408051928352602083019190915201610138565b61012e60075481565b61012e61029536600461124d565b6001600160a01b03918216600090815260016020908152604080832093909416825291909152205490565b6102d36102ce3660046112ea565b610a99565b60408051938452602084019290925290820152606001610138565b600080841180156102ff5750600083115b801561030b5750600082115b61034c5760405162461bcd60e51b815260206004820152600d60248201526c125b9d985b1a59081a5b9c1d5d609a1b60448201526064015b60405180910390fd5b600061035a856103e5611374565b905060006103688483611374565b9050600082610379876103e8611374565b610383919061138b565b905061038f818361139e565b979650505050505050565b6060600380546103a9906113c0565b80601f01602080910402602001604051908101604052809291908181526020018280546103d5906113c0565b80156104225780601f106103f757610100808354040283529160200191610422565b820191906000526020600020905b81548152906001019060200180831161040557829003601f168201915b5050505050905090565b60003361043a818585610ccb565b60019150505b92915050565b600033610454858285610cdd565b61045f858585610d5b565b506001949350505050565b8042111561048a5760405162461bcd60e51b8152600401610343906113f4565b600283146104c95760405162461bcd60e51b815260206004820152600c60248201526b092dcecc2d8d2c840e0c2e8d60a31b6044820152606401610343565b6000848460008181106104de576104de61141e565b90506020020160208101906104f39190611232565b905060008585600181811061050a5761050a61141e565b905060200201602081019061051f9190611232565b6005549091506001600160a01b03838116911614801561054c57506006546001600160a01b038281169116145b8061057c57506006546001600160a01b03838116911614801561057c57506005546001600160a01b038281169116145b6105985760405162461bcd60e51b815260040161034390611434565b6040516323b872dd60e01b8152336004820152306024820152604481018990526001600160a01b038316906323b872dd906064016020604051808303816000875af11580156105eb573d6000803e3d6000fd5b505050506040513d601f19601f8201168201806040525081019061060f919061145a565b506005546000906001600160a01b0384811691161461063057600854610634565b6007545b6005549091506000906001600160a01b038481169116146106575760085461065b565b6007545b9050600061066a8b84846102ee565b90508981101561068c5760405162461bcd60e51b81526004016103439061147c565b60405163a9059cbb60e01b81526001600160a01b0388811660048301526024820183905285169063a9059cbb906044016020604051808303816000875af11580156106db573d6000803e3d6000fd5b505050506040513d601f19601f820116820180604052508101906106ff919061145a565b506005546001600160a01b039081169086160361074c578a60076000828254610728919061138b565b925050819055508060086000828254610741919061149e565b9091555061077d9050565b8a6008600082825461075e919061138b565b925050819055508060076000828254610777919061149e565b90915550505b5050505050505050505050565b6060600480546103a9906113c0565b60003361043a818585610d5b565b6005546000906001600160a01b0384811691161480156107d457506006546001600160a01b038381169116145b8061080457506006546001600160a01b03848116911614801561080457506005546001600160a01b038381169116145b6108205760405162461bcd60e51b815260040161034390611434565b6005546001600160a01b039081169084160361085f5760075460085461084e90670de0b6b3a7640000611374565b610858919061139e565b9050610440565b60085460075461087790670de0b6b3a7640000611374565b610881919061139e565b9392505050565b600080824211156108ab5760405162461bcd60e51b8152600401610343906113f4565b6005546001600160a01b038a811691161480156108d557506006546001600160a01b038981169116145b6108f15760405162461bcd60e51b815260040161034390611434565b60006108fc60025490565b9050806007548961090d9190611374565b610917919061139e565b925080600854896109289190611374565b610932919061139e565b91508683101580156109445750858210155b6109605760405162461bcd60e51b81526004016103439061147c565b61096a3389610dba565b60055460405163a9059cbb60e01b81526001600160a01b038781166004830152602482018690529091169063a9059cbb906044016020604051808303816000875af11580156109bd573d6000803e3d6000fd5b505050506040513d601f19601f820116820180604052508101906109e1919061145a565b5060065460405163a9059cbb60e01b81526001600160a01b038781166004830152602482018590529091169063a9059cbb906044016020604051808303816000875af1158015610a35573d6000803e3d6000fd5b505050506040513d601f19601f82011682018060405250810190610a59919061145a565b508260076000828254610a6c919061149e565b925050819055508160086000828254610a85919061149e565b925050819055505097509795505050505050565b600080600083421115610abe5760405162461bcd60e51b8152600401610343906113f4565b6005546001600160a01b038c81169116148015610ae857506006546001600160a01b038b81169116145b610b045760405162461bcd60e51b815260040161034390611434565b6005546040516323b872dd60e01b8152336004820152306024820152604481018b90526001600160a01b03909116906323b872dd906064016020604051808303816000875af1158015610b5b573d6000803e3d6000fd5b505050506040513d601f19601f82011682018060405250810190610b7f919061145a565b506006546040516323b872dd60e01b8152336004820152306024820152604481018a90526001600160a01b03909116906323b872dd906064016020604051808303816000875af1158015610bd7573d6000803e3d6000fd5b505050506040513d601f19601f82011682018060405250810190610bfb919061145a565b50889250879150868310158015610c125750858210155b610c2e5760405162461bcd60e51b81526004016103439061147c565b610c40610c3b8385611374565b610df4565b9050610c4c8582610e64565b8260076000828254610c5e919061138b565b925050819055508160086000828254610c77919061138b565b909155505060408051848152602081018490529081018290527fd7f28048575eead8851d024ead087913957dfb4fd1a02b4d1573f5352a5a2be39060600160405180910390a1985098509895505050505050565b610cd88383836001610e9a565b505050565b6001600160a01b038381166000908152600160209081526040808320938616835292905220546000198114610d555781811015610d4657604051637dc7a0d960e11b81526001600160a01b03841660048201526024810182905260448101839052606401610343565b610d5584848484036000610e9a565b50505050565b6001600160a01b038316610d8557604051634b637e8f60e11b815260006004820152602401610343565b6001600160a01b038216610daf5760405163ec442f0560e01b815260006004820152602401610343565b610cd8838383610f6f565b6001600160a01b038216610de457604051634b637e8f60e11b815260006004820152602401610343565b610df082600083610f6f565b5050565b60006003821115610e555750806000610e0e60028361139e565b610e1990600161138b565b90505b81811015610e4f57905080600281610e34818661139e565b610e3e919061138b565b610e48919061139e565b9050610e1c565b50919050565b8115610e5f575060015b919050565b6001600160a01b038216610e8e5760405163ec442f0560e01b815260006004820152602401610343565b610df060008383610f6f565b6001600160a01b038416610ec45760405163e602df0560e01b815260006004820152602401610343565b6001600160a01b038316610eee57604051634a1406b160e11b815260006004820152602401610343565b6001600160a01b0380851660009081526001602090815260408083209387168352929052208290558015610d5557826001600160a01b0316846001600160a01b03167f8c5be1e5ebec7d5bd14f71427d1e84f3dd0314c0f7b2291e5b200ac8c7c3b92584604051610f6191815260200190565b60405180910390a350505050565b6001600160a01b038316610f9a578060026000828254610f8f919061138b565b9091555061100c9050565b6001600160a01b03831660009081526020819052604090205481811015610fed5760405163391434e360e21b81526001600160a01b03851660048201526024810182905260448101839052606401610343565b6001600160a01b03841660009081526020819052604090209082900390555b6001600160a01b03821661102857600280548290039055611047565b6001600160a01b03821660009081526020819052604090208054820190555b816001600160a01b0316836001600160a01b03167fddf252ad1be2c89b69c2b068fc378daa952ba7f163c4a11628f55a4df523b3ef8360405161108c91815260200190565b60405180910390a3505050565b6000806000606084860312156110ae57600080fd5b505081359360208301359350604090920135919050565b600060208083528351808285015260005b818110156110f2578581018301518582016040015282016110d6565b506000604082860101526040601f19601f8301168501019250505092915050565b80356001600160a01b0381168114610e5f57600080fd5b6000806040838503121561113d57600080fd5b61114683611113565b946020939093013593505050565b60008060006060848603121561116957600080fd5b61117284611113565b925061118060208501611113565b9150604084013590509250925092565b60008060008060008060a087890312156111a957600080fd5b8635955060208701359450604087013567ffffffffffffffff808211156111cf57600080fd5b818901915089601f8301126111e357600080fd5b8135818111156111f257600080fd5b8a60208260051b850101111561120757600080fd5b60208301965080955050505061121f60608801611113565b9150608087013590509295509295509295565b60006020828403121561124457600080fd5b61088182611113565b6000806040838503121561126057600080fd5b61126983611113565b915061127760208401611113565b90509250929050565b600080600080600080600060e0888a03121561129b57600080fd5b6112a488611113565b96506112b260208901611113565b95506040880135945060608801359350608088013592506112d560a08901611113565b915060c0880135905092959891949750929550565b600080600080600080600080610100898b03121561130757600080fd5b61131089611113565b975061131e60208a01611113565b965060408901359550606089013594506080890135935060a0890135925061134860c08a01611113565b915060e089013590509295985092959890939650565b634e487b7160e01b600052601160045260246000fd5b80820281158282048414176104405761044061135e565b808201808211156104405761044061135e565b6000826113bb57634e487b7160e01b600052601260045260246000fd5b500490565b600181811c908216806113d457607f821691505b602082108103610e4f57634e487b7160e01b600052602260045260246000fd5b60208082526010908201526f111958591b1a5b9948195e1c1a5c995960821b604082015260600190565b634e487b7160e01b600052603260045260246000fd5b6020808252600c908201526b24b73b30b634b2103830b4b960a11b604082015260600190565b60006020828403121561146c57600080fd5b8151801515811461088157600080fd5b602080825260089082015267536c69707061676560c01b604082015260600190565b818103818111156104405761044061135e56fea2646970667358221220280c112b1e8ece0e7c1d8d0f814d5d7802666c7b3327b2e9aabe5de707fee6b464736f6c63430008140033",
  "devdoc": {
    "errors": {
      "ERC20InsufficientAllowance(address,uint256,uint256)": [
        {
          "details": "Indicates a failure with the `spender`s `allowance`. Used in transfers.",
          "params": {
            "allowance": "Amount of tokens a `spender` is allowed to operate with.",
            "needed": "Minimum amount required to perform a transfer.",
            "spender": "Address that may be allowed to operate on tokens without being their owner."
          }
        }
      ],
      "ERC20InsufficientBalance(address,uint256,uint256)": [
        {
          "details": "Indicates an error related to the current `balance` of a `sender`. Used in transfers.",
          "params": {
            "balance": "Current balance for the interacting account.",
            "needed": "Minimum amount required to perform a transfer.",
            "sender": "Address whose tokens are being transferred."
          }
        }
      ],
      "ERC20InvalidApprover(address)": [
        {
          "details": "Indicates a failure with the `approver` of a token to be approved. Used in approvals.",
          "params": {
            "approver": "Address initiating an approval operation."
          }
        }
      ],
      "ERC20InvalidReceiver(address)": [
        {
          "details": "Indicates a failure with the token `receiver`. Used in transfers.",
          "params": {
            "receiver": "Address to which tokens are being transferred."
          }
        }
      ],
      "ERC20InvalidSender(address)": [
        {
          "details": "Indicates a failure with the token `sender`. Used in transfers.",
          "params": {
            "sender": "Address whose tokens are being transferred."
          }
        }
      ],
      "ERC20InvalidSpender(address)": [
        {
          "details": "Indicates a failure with the `spender` to be approved. Used in approvals.",
          "params": {
            "spender": "Address that may be allowed to operate on tokens without being their owner."
          }
        }
      ]
    },
    "events": {
      "Approval(address,address,uint256)": {
        "details": "Emitted when the allowance of a `spender` for an `owner` is set by a call to {approve}. `value` is the new allowance."
      },
      "Transfer(address,address,uint256)": {
        "details": "Emitted when `value` tokens are moved from one account (`from`) to another (`to`). Note that `value` may be zero."
      }
    },
    "kind": "dev",
    "methods": {
      "allowance(address,address)": {
        "details": "See {IERC20-allowance}."
      },
      "approve(address,uint256)": {
        "details": "See {IERC20-approve}. NOTE: If `value` is the maximum `uint256`, the allowance is not updated on `transferFrom`. This is semantically equivalent to an infinite approval. Requirements: - `spender` cannot be the zero address."
      },
      "balanceOf(address)": {
        "details": "See {IERC20-balanceOf}."
      },
      "decimals()": {
        "details": "Returns the number of decimals used to get its user representation. For example, if `decimals` equals `2`, a balance of `505` tokens should be displayed to a user as `5.05` (`505 / 10 ** 2`). Tokens usually opt for a value of 18, imitating the relationship between Ether and Wei. This is the default value returned by this function, unless it's overridden. NOTE: This information is only used for _display_ purposes: it in no way affects any of the arithmetic of the contract, including {IERC20-balanceOf} and {IERC20-transfer}."
      },
      "name()": {
        "details": "Returns the name of the token."
      },
      "symbol()": {
        "details": "Returns the symbol of the token, usually a shorter version of the name."
      },
      "totalSupply()": {
        "details": "See {IERC20-totalSupply}."
      },
      "transfer(address,uint256)": {
        "details": "See {IERC20-transfer}. Requirements: - `to` cannot be the zero address. - the caller must have a balance of at least `value`."
      },
      "transferFrom(address,address,uint256)": {
        "details": "See {IERC20-transferFrom}. Emits an {Approval} event indicating the updated allowance. This is not required by the EIP. See the note at the beginning of {ERC20}. NOTE: Does not update the allowance if the current allowance is the maximum `uint256`. Requirements: - `from` and `to` cannot be the zero address. - `from` must have a balance of at least `value`. - the caller must have allowance for ``from``'s tokens of at least `value`."
      }
    },
    "version": 1
  },
  "userdoc": {
    "kind": "user",
    "methods": {},
    "version": 1
  },
  "storageLayout": {
    "storage": [
      {
        "astId": 307,
        "contract": "contracts/SimpleSwap.sol:SimpleSwap",
        "label": "_balances",
        "offset": 0,
        "slot": "0",
        "type": "t_mapping(t_address,t_uint256)"
      },
      {
        "astId": 313,
        "contract": "contracts/SimpleSwap.sol:SimpleSwap",
        "label": "_allowances",
        "offset": 0,
        "slot": "1",
        "type": "t_mapping(t_address,t_mapping(t_address,t_uint256))"
      },
      {
        "astId": 315,
        "contract": "contracts/SimpleSwap.sol:SimpleSwap",
        "label": "_totalSupply",
        "offset": 0,
        "slot": "2",
        "type": "t_uint256"
      },
      {
        "astId": 317,
        "contract": "contracts/SimpleSwap.sol:SimpleSwap",
        "label": "_name",
        "offset": 0,
        "slot": "3",
        "type": "t_string_storage"
      },
      {
        "astId": 319,
        "contract": "contracts/SimpleSwap.sol:SimpleSwap",
        "label": "_symbol",
        "offset": 0,
        "slot": "4",
        "type": "t_string_storage"
      },
      {
        "astId": 941,
        "contract": "contracts/SimpleSwap.sol:SimpleSwap",
        "label": "tokenA",
        "offset": 0,
        "slot": "5",
        "type": "t_address"
      },
      {
        "astId": 943,
        "contract": "contracts/SimpleSwap.sol:SimpleSwap",
        "label": "tokenB",
        "offset": 0,
        "slot": "6",
        "type": "t_address"
      },
      {
        "astId": 945,
        "contract": "contracts/SimpleSwap.sol:SimpleSwap",
        "label": "reserveA",
        "offset": 0,
        "slot": "7",
        "type": "t_uint256"
      },
      {
        "astId": 947,
        "contract": "contracts/SimpleSwap.sol:SimpleSwap",
        "label": "reserveB",
        "offset": 0,
        "slot": "8",
        "type": "t_uint256"
      }
    ],
    "types": {
      "t_address": {
        "encoding": "inplace",
        "label": "address",
        "numberOfBytes": "20"
      },
      "t_mapping(t_address,t_mapping(t_address,t_uint256))": {
        "encoding": "mapping",
        "key": "t_address",
        "label": "mapping(address => mapping(address => uint256))",
        "numberOfBytes": "32",
        "value": "t_mapping(t_address,t_uint256)"
      },
      "t_mapping(t_address,t_uint256)": {
        "encoding": "mapping",
        "key": "t_address",
        "label": "mapping(address => uint256)",
        "numberOfBytes": "32",
        "value": "t_uint256"
      },
      "t_string_storage": {
        "encoding": "bytes",
        "label": "string",
        "numberOfBytes": "32"
      },
      "t_uint256": {
        "encoding": "inplace",
        "label": "uint256",
        "numberOfBytes": "32"
      }
    }
  }
}